{
	"Wallet/Wallet.sol": {
		"Wallet": {
			"abi": [
				{
					"inputs": [
						{
							"internalType": "address payable",
							"name": "_ownerWallet",
							"type": "address"
						},
						{
							"internalType": "address",
							"name": "_token",
							"type": "address"
						}
					],
					"stateMutability": "nonpayable",
					"type": "constructor"
				},
				{
					"anonymous": false,
					"inputs": [
						{
							"indexed": false,
							"internalType": "address",
							"name": "_buyer",
							"type": "address"
						},
						{
							"indexed": false,
							"internalType": "uint256",
							"name": "_value",
							"type": "uint256"
						}
					],
					"name": "Purchase",
					"type": "event"
				},
				{
					"inputs": [
						{
							"internalType": "address",
							"name": "",
							"type": "address"
						}
					],
					"name": "EPTokenBalances",
					"outputs": [
						{
							"internalType": "uint256",
							"name": "",
							"type": "uint256"
						}
					],
					"stateMutability": "view",
					"type": "function"
				},
				{
					"inputs": [
						{
							"internalType": "uint256",
							"name": "_amount",
							"type": "uint256"
						}
					],
					"name": "addCoin",
					"outputs": [
						{
							"internalType": "uint256",
							"name": "",
							"type": "uint256"
						},
						{
							"internalType": "uint256",
							"name": "",
							"type": "uint256"
						}
					],
					"stateMutability": "nonpayable",
					"type": "function"
				},
				{
					"inputs": [],
					"name": "buyToken",
					"outputs": [],
					"stateMutability": "payable",
					"type": "function"
				},
				{
					"inputs": [],
					"name": "getCoinAmount",
					"outputs": [
						{
							"internalType": "uint256",
							"name": "",
							"type": "uint256"
						}
					],
					"stateMutability": "view",
					"type": "function"
				},
				{
					"inputs": [],
					"name": "ownerWallet",
					"outputs": [
						{
							"internalType": "address payable",
							"name": "",
							"type": "address"
						}
					],
					"stateMutability": "view",
					"type": "function"
				},
				{
					"inputs": [],
					"name": "resetWallet",
					"outputs": [],
					"stateMutability": "nonpayable",
					"type": "function"
				},
				{
					"inputs": [],
					"name": "token",
					"outputs": [
						{
							"internalType": "address",
							"name": "",
							"type": "address"
						}
					],
					"stateMutability": "view",
					"type": "function"
				}
			],
			"devdoc": {
				"kind": "dev",
				"methods": {},
				"version": 1
			},
			"evm": {
				"assembly": "    /* \"Wallet/Wallet.sol\":106:1174  contract Wallet {\r... */\n  mstore(0x40, 0x80)\n    /* \"Wallet/Wallet.sol\":160:161  0 */\n  0x00\n    /* \"Wallet/Wallet.sol\":129:161  uint256 internal savedAmount = 0 */\n  dup1\n  sstore\n    /* \"Wallet/Wallet.sol\":352:480  constructor(address payable _ownerWallet, address _token) {\r... */\n  callvalue\n  dup1\n  iszero\n  tag_1\n  jumpi\n  0x00\n  dup1\n  revert\ntag_1:\n  pop\n  mload(0x40)\n  sub(codesize, bytecodeSize)\n  dup1\n  bytecodeSize\n  dup4\n  codecopy\n  dup2\n  dup2\n  add\n  0x40\n  mstore\n  dup2\n  add\n  swap1\n  tag_2\n  swap2\n  swap1\n  tag_3\n  jump\t// in\ntag_2:\n    /* \"Wallet/Wallet.sol\":435:447  _ownerWallet */\n  dup2\n    /* \"Wallet/Wallet.sol\":421:432  ownerWallet */\n  0x01\n  0x00\n    /* \"Wallet/Wallet.sol\":421:447  ownerWallet = _ownerWallet */\n  0x0100\n  exp\n  dup2\n  sload\n  dup2\n  0xffffffffffffffffffffffffffffffffffffffff\n  mul\n  not\n  and\n  swap1\n  dup4\n  0xffffffffffffffffffffffffffffffffffffffff\n  and\n  mul\n  or\n  swap1\n  sstore\n  pop\n    /* \"Wallet/Wallet.sol\":466:472  _token */\n  dup1\n    /* \"Wallet/Wallet.sol\":458:463  token */\n  0x02\n  0x00\n    /* \"Wallet/Wallet.sol\":458:472  token = _token */\n  0x0100\n  exp\n  dup2\n  sload\n  dup2\n  0xffffffffffffffffffffffffffffffffffffffff\n  mul\n  not\n  and\n  swap1\n  dup4\n  0xffffffffffffffffffffffffffffffffffffffff\n  and\n  mul\n  or\n  swap1\n  sstore\n  pop\n    /* \"Wallet/Wallet.sol\":352:480  constructor(address payable _ownerWallet, address _token) {\r... */\n  pop\n  pop\n    /* \"Wallet/Wallet.sol\":106:1174  contract Wallet {\r... */\n  jump(tag_6)\n    /* \"#utility.yul\":7:150   */\ntag_8:\n    /* \"#utility.yul\":64:69   */\n  0x00\n    /* \"#utility.yul\":95:101   */\n  dup2\n    /* \"#utility.yul\":89:102   */\n  mload\n    /* \"#utility.yul\":80:102   */\n  swap1\n  pop\n    /* \"#utility.yul\":111:144   */\n  tag_10\n    /* \"#utility.yul\":138:143   */\n  dup2\n    /* \"#utility.yul\":111:144   */\n  tag_11\n  jump\t// in\ntag_10:\n    /* \"#utility.yul\":7:150   */\n  swap3\n  swap2\n  pop\n  pop\n  jump\t// out\n    /* \"#utility.yul\":156:315   */\ntag_12:\n    /* \"#utility.yul\":221:226   */\n  0x00\n    /* \"#utility.yul\":252:258   */\n  dup2\n    /* \"#utility.yul\":246:259   */\n  mload\n    /* \"#utility.yul\":237:259   */\n  swap1\n  pop\n    /* \"#utility.yul\":268:309   */\n  tag_14\n    /* \"#utility.yul\":303:308   */\n  dup2\n    /* \"#utility.yul\":268:309   */\n  tag_15\n  jump\t// in\ntag_14:\n    /* \"#utility.yul\":156:315   */\n  swap3\n  swap2\n  pop\n  pop\n  jump\t// out\n    /* \"#utility.yul\":321:844   */\ntag_3:\n    /* \"#utility.yul\":408:414   */\n  0x00\n    /* \"#utility.yul\":416:422   */\n  dup1\n    /* \"#utility.yul\":465:467   */\n  0x40\n    /* \"#utility.yul\":453:462   */\n  dup4\n    /* \"#utility.yul\":444:451   */\n  dup6\n    /* \"#utility.yul\":440:463   */\n  sub\n    /* \"#utility.yul\":436:468   */\n  slt\n    /* \"#utility.yul\":433:552   */\n  iszero\n  tag_17\n  jumpi\n    /* \"#utility.yul\":471:550   */\n  tag_18\n  tag_19\n  jump\t// in\ntag_18:\n    /* \"#utility.yul\":433:552   */\ntag_17:\n    /* \"#utility.yul\":591:592   */\n  0x00\n    /* \"#utility.yul\":616:688   */\n  tag_20\n    /* \"#utility.yul\":680:687   */\n  dup6\n    /* \"#utility.yul\":671:677   */\n  dup3\n    /* \"#utility.yul\":660:669   */\n  dup7\n    /* \"#utility.yul\":656:678   */\n  add\n    /* \"#utility.yul\":616:688   */\n  tag_12\n  jump\t// in\ntag_20:\n    /* \"#utility.yul\":606:688   */\n  swap3\n  pop\n    /* \"#utility.yul\":562:698   */\n  pop\n    /* \"#utility.yul\":737:739   */\n  0x20\n    /* \"#utility.yul\":763:827   */\n  tag_21\n    /* \"#utility.yul\":819:826   */\n  dup6\n    /* \"#utility.yul\":810:816   */\n  dup3\n    /* \"#utility.yul\":799:808   */\n  dup7\n    /* \"#utility.yul\":795:817   */\n  add\n    /* \"#utility.yul\":763:827   */\n  tag_8\n  jump\t// in\ntag_21:\n    /* \"#utility.yul\":753:827   */\n  swap2\n  pop\n    /* \"#utility.yul\":708:837   */\n  pop\n    /* \"#utility.yul\":321:844   */\n  swap3\n  pop\n  swap3\n  swap1\n  pop\n  jump\t// out\n    /* \"#utility.yul\":931:1027   */\ntag_24:\n    /* \"#utility.yul\":968:975   */\n  0x00\n    /* \"#utility.yul\":997:1021   */\n  tag_26\n    /* \"#utility.yul\":1015:1020   */\n  dup3\n    /* \"#utility.yul\":997:1021   */\n  tag_27\n  jump\t// in\ntag_26:\n    /* \"#utility.yul\":986:1021   */\n  swap1\n  pop\n    /* \"#utility.yul\":931:1027   */\n  swap2\n  swap1\n  pop\n  jump\t// out\n    /* \"#utility.yul\":1033:1137   */\ntag_28:\n    /* \"#utility.yul\":1078:1085   */\n  0x00\n    /* \"#utility.yul\":1107:1131   */\n  tag_30\n    /* \"#utility.yul\":1125:1130   */\n  dup3\n    /* \"#utility.yul\":1107:1131   */\n  tag_27\n  jump\t// in\ntag_30:\n    /* \"#utility.yul\":1096:1131   */\n  swap1\n  pop\n    /* \"#utility.yul\":1033:1137   */\n  swap2\n  swap1\n  pop\n  jump\t// out\n    /* \"#utility.yul\":1143:1269   */\ntag_27:\n    /* \"#utility.yul\":1180:1187   */\n  0x00\n    /* \"#utility.yul\":1220:1262   */\n  0xffffffffffffffffffffffffffffffffffffffff\n    /* \"#utility.yul\":1213:1218   */\n  dup3\n    /* \"#utility.yul\":1209:1263   */\n  and\n    /* \"#utility.yul\":1198:1263   */\n  swap1\n  pop\n    /* \"#utility.yul\":1143:1269   */\n  swap2\n  swap1\n  pop\n  jump\t// out\n    /* \"#utility.yul\":1398:1515   */\ntag_19:\n    /* \"#utility.yul\":1507:1508   */\n  0x00\n    /* \"#utility.yul\":1504:1505   */\n  dup1\n    /* \"#utility.yul\":1497:1509   */\n  revert\n    /* \"#utility.yul\":1521:1643   */\ntag_11:\n    /* \"#utility.yul\":1594:1618   */\n  tag_36\n    /* \"#utility.yul\":1612:1617   */\n  dup2\n    /* \"#utility.yul\":1594:1618   */\n  tag_24\n  jump\t// in\ntag_36:\n    /* \"#utility.yul\":1587:1592   */\n  dup2\n    /* \"#utility.yul\":1584:1619   */\n  eq\n    /* \"#utility.yul\":1574:1637   */\n  tag_37\n  jumpi\n    /* \"#utility.yul\":1633:1634   */\n  0x00\n    /* \"#utility.yul\":1630:1631   */\n  dup1\n    /* \"#utility.yul\":1623:1635   */\n  revert\n    /* \"#utility.yul\":1574:1637   */\ntag_37:\n    /* \"#utility.yul\":1521:1643   */\n  pop\n  jump\t// out\n    /* \"#utility.yul\":1649:1787   */\ntag_15:\n    /* \"#utility.yul\":1730:1762   */\n  tag_39\n    /* \"#utility.yul\":1756:1761   */\n  dup2\n    /* \"#utility.yul\":1730:1762   */\n  tag_28\n  jump\t// in\ntag_39:\n    /* \"#utility.yul\":1723:1728   */\n  dup2\n    /* \"#utility.yul\":1720:1763   */\n  eq\n    /* \"#utility.yul\":1710:1781   */\n  tag_40\n  jumpi\n    /* \"#utility.yul\":1777:1778   */\n  0x00\n    /* \"#utility.yul\":1774:1775   */\n  dup1\n    /* \"#utility.yul\":1767:1779   */\n  revert\n    /* \"#utility.yul\":1710:1781   */\ntag_40:\n    /* \"#utility.yul\":1649:1787   */\n  pop\n  jump\t// out\n    /* \"Wallet/Wallet.sol\":106:1174  contract Wallet {\r... */\ntag_6:\n  dataSize(sub_0)\n  dup1\n  dataOffset(sub_0)\n  0x00\n  codecopy\n  0x00\n  return\nstop\n\nsub_0: assembly {\n        /* \"Wallet/Wallet.sol\":106:1174  contract Wallet {\r... */\n      mstore(0x40, 0x80)\n      jumpi(tag_1, lt(calldatasize, 0x04))\n      shr(0xe0, calldataload(0x00))\n      dup1\n      0x9bd3178a\n      gt\n      tag_9\n      jumpi\n      dup1\n      0x9bd3178a\n      eq\n      tag_5\n      jumpi\n      dup1\n      0xa4821719\n      eq\n      tag_6\n      jumpi\n      dup1\n      0xa56793ae\n      eq\n      tag_7\n      jumpi\n      dup1\n      0xfc0c546a\n      eq\n      tag_8\n      jumpi\n      jump(tag_1)\n    tag_9:\n      dup1\n      0x1895e858\n      eq\n      tag_2\n      jumpi\n      dup1\n      0x623e9ba6\n      eq\n      tag_3\n      jumpi\n      dup1\n      0x9335dcb7\n      eq\n      tag_4\n      jumpi\n    tag_1:\n      0x00\n      dup1\n      revert\n        /* \"Wallet/Wallet.sol\":687:763  function resetWallet() external onlyOwner {\r... */\n    tag_2:\n      callvalue\n      dup1\n      iszero\n      tag_10\n      jumpi\n      0x00\n      dup1\n      revert\n    tag_10:\n      pop\n      tag_11\n      tag_12\n      jump\t// in\n    tag_11:\n      stop\n        /* \"Wallet/Wallet.sol\":790:884  function getCoinAmount() external view returns (uint256) {\r... */\n    tag_3:\n      callvalue\n      dup1\n      iszero\n      tag_13\n      jumpi\n      0x00\n      dup1\n      revert\n    tag_13:\n      pop\n      tag_14\n      tag_15\n      jump\t// in\n    tag_14:\n      mload(0x40)\n      tag_16\n      swap2\n      swap1\n      tag_17\n      jump\t// in\n    tag_16:\n      mload(0x40)\n      dup1\n      swap2\n      sub\n      swap1\n      return\n        /* \"Wallet/Wallet.sol\":168:202  address payable public ownerWallet */\n    tag_4:\n      callvalue\n      dup1\n      iszero\n      tag_18\n      jumpi\n      0x00\n      dup1\n      revert\n    tag_18:\n      pop\n      tag_19\n      tag_20\n      jump\t// in\n    tag_19:\n      mload(0x40)\n      tag_21\n      swap2\n      swap1\n      tag_22\n      jump\t// in\n    tag_21:\n      mload(0x40)\n      dup1\n      swap2\n      sub\n      swap1\n      return\n        /* \"Wallet/Wallet.sol\":238:288  mapping(address => uint256) public EPTokenBalances */\n    tag_5:\n      callvalue\n      dup1\n      iszero\n      tag_23\n      jumpi\n      0x00\n      dup1\n      revert\n    tag_23:\n      pop\n      tag_24\n      0x04\n      dup1\n      calldatasize\n      sub\n      dup2\n      add\n      swap1\n      tag_25\n      swap2\n      swap1\n      tag_26\n      jump\t// in\n    tag_25:\n      tag_27\n      jump\t// in\n    tag_24:\n      mload(0x40)\n      tag_28\n      swap2\n      swap1\n      tag_17\n      jump\t// in\n    tag_28:\n      mload(0x40)\n      dup1\n      swap2\n      sub\n      swap1\n      return\n        /* \"Wallet/Wallet.sol\":986:1171  function buyToken() public payable {\r... */\n    tag_6:\n      tag_29\n      tag_30\n      jump\t// in\n    tag_29:\n      stop\n        /* \"Wallet/Wallet.sol\":508:659  function addCoin(uint256 _amount) external returns (uint256, uint256) {\r... */\n    tag_7:\n      callvalue\n      dup1\n      iszero\n      tag_31\n      jumpi\n      0x00\n      dup1\n      revert\n    tag_31:\n      pop\n      tag_32\n      0x04\n      dup1\n      calldatasize\n      sub\n      dup2\n      add\n      swap1\n      tag_33\n      swap2\n      swap1\n      tag_34\n      jump\t// in\n    tag_33:\n      tag_35\n      jump\t// in\n    tag_32:\n      mload(0x40)\n      tag_36\n      swap3\n      swap2\n      swap1\n      tag_37\n      jump\t// in\n    tag_36:\n      mload(0x40)\n      dup1\n      swap2\n      sub\n      swap1\n      return\n        /* \"Wallet/Wallet.sol\":209:229  address public token */\n    tag_8:\n      callvalue\n      dup1\n      iszero\n      tag_38\n      jumpi\n      0x00\n      dup1\n      revert\n    tag_38:\n      pop\n      tag_39\n      tag_40\n      jump\t// in\n    tag_39:\n      mload(0x40)\n      tag_41\n      swap2\n      swap1\n      tag_42\n      jump\t// in\n    tag_41:\n      mload(0x40)\n      dup1\n      swap2\n      sub\n      swap1\n      return\n        /* \"Wallet/Wallet.sol\":687:763  function resetWallet() external onlyOwner {\r... */\n    tag_12:\n        /* \"Wallet/Wallet.sol\":946:957  ownerWallet */\n      0x01\n      0x00\n      swap1\n      sload\n      swap1\n      0x0100\n      exp\n      swap1\n      div\n      0xffffffffffffffffffffffffffffffffffffffff\n      and\n        /* \"Wallet/Wallet.sol\":932:957  msg.sender == ownerWallet */\n      0xffffffffffffffffffffffffffffffffffffffff\n      and\n        /* \"Wallet/Wallet.sol\":932:942  msg.sender */\n      caller\n        /* \"Wallet/Wallet.sol\":932:957  msg.sender == ownerWallet */\n      0xffffffffffffffffffffffffffffffffffffffff\n      and\n      eq\n        /* \"Wallet/Wallet.sol\":924:958  require(msg.sender == ownerWallet) */\n      tag_44\n      jumpi\n      0x00\n      dup1\n      revert\n    tag_44:\n        /* \"Wallet/Wallet.sol\":754:755  0 */\n      0x00\n        /* \"Wallet/Wallet.sol\":740:751  savedAmount */\n      dup1\n        /* \"Wallet/Wallet.sol\":740:755  savedAmount = 0 */\n      dup2\n      swap1\n      sstore\n      pop\n        /* \"Wallet/Wallet.sol\":687:763  function resetWallet() external onlyOwner {\r... */\n      jump\t// out\n        /* \"Wallet/Wallet.sol\":790:884  function getCoinAmount() external view returns (uint256) {\r... */\n    tag_15:\n        /* \"Wallet/Wallet.sol\":838:845  uint256 */\n      0x00\n        /* \"Wallet/Wallet.sol\":865:876  savedAmount */\n      dup1\n      sload\n        /* \"Wallet/Wallet.sol\":858:876  return savedAmount */\n      swap1\n      pop\n        /* \"Wallet/Wallet.sol\":790:884  function getCoinAmount() external view returns (uint256) {\r... */\n      swap1\n      jump\t// out\n        /* \"Wallet/Wallet.sol\":168:202  address payable public ownerWallet */\n    tag_20:\n      0x01\n      0x00\n      swap1\n      sload\n      swap1\n      0x0100\n      exp\n      swap1\n      div\n      0xffffffffffffffffffffffffffffffffffffffff\n      and\n      dup2\n      jump\t// out\n        /* \"Wallet/Wallet.sol\":238:288  mapping(address => uint256) public EPTokenBalances */\n    tag_27:\n      mstore(0x20, 0x03)\n      dup1\n      0x00\n      mstore\n      keccak256(0x00, 0x40)\n      0x00\n      swap2\n      pop\n      swap1\n      pop\n      sload\n      dup2\n      jump\t// out\n        /* \"Wallet/Wallet.sol\":986:1171  function buyToken() public payable {\r... */\n    tag_30:\n        /* \"Wallet/Wallet.sol\":1064:1073  msg.value */\n      callvalue\n        /* \"Wallet/Wallet.sol\":1032:1047  EPTokenBalances */\n      0x03\n        /* \"Wallet/Wallet.sol\":1032:1059  EPTokenBalances[msg.sender] */\n      0x00\n        /* \"Wallet/Wallet.sol\":1048:1058  msg.sender */\n      caller\n        /* \"Wallet/Wallet.sol\":1032:1059  EPTokenBalances[msg.sender] */\n      0xffffffffffffffffffffffffffffffffffffffff\n      and\n      0xffffffffffffffffffffffffffffffffffffffff\n      and\n      dup2\n      mstore\n      0x20\n      add\n      swap1\n      dup2\n      mstore\n      0x20\n      add\n      0x00\n      keccak256\n      0x00\n        /* \"Wallet/Wallet.sol\":1032:1074  EPTokenBalances[msg.sender] += (msg.value) */\n      dup3\n      dup3\n      sload\n      tag_48\n      swap2\n      swap1\n      tag_49\n      jump\t// in\n    tag_48:\n      swap3\n      pop\n      pop\n      dup2\n      swap1\n      sstore\n      pop\n        /* \"Wallet/Wallet.sol\":1085:1096  ownerWallet */\n      0x01\n      0x00\n      swap1\n      sload\n      swap1\n      0x0100\n      exp\n      swap1\n      div\n      0xffffffffffffffffffffffffffffffffffffffff\n      and\n        /* \"Wallet/Wallet.sol\":1085:1105  ownerWallet.transfer */\n      0xffffffffffffffffffffffffffffffffffffffff\n      and\n        /* \"Wallet/Wallet.sol\":1085:1116  ownerWallet.transfer(msg.value) */\n      0x08fc\n        /* \"Wallet/Wallet.sol\":1106:1115  msg.value */\n      callvalue\n        /* \"Wallet/Wallet.sol\":1085:1116  ownerWallet.transfer(msg.value) */\n      swap1\n      dup2\n      iszero\n      mul\n      swap1\n      mload(0x40)\n      0x00\n      mload(0x40)\n      dup1\n      dup4\n      sub\n      dup2\n      dup6\n      dup9\n      dup9\n      call\n      swap4\n      pop\n      pop\n      pop\n      pop\n      iszero\n      dup1\n      iszero\n      tag_51\n      jumpi\n      returndatasize\n      0x00\n      dup1\n      returndatacopy\n      revert(0x00, returndatasize)\n    tag_51:\n      pop\n        /* \"Wallet/Wallet.sol\":1132:1163  Purchase(msg.sender, msg.value) */\n      0x2499a5330ab0979cc612135e7883ebc3cd5c9f7a8508f042540c34723348f632\n        /* \"Wallet/Wallet.sol\":1141:1151  msg.sender */\n      caller\n        /* \"Wallet/Wallet.sol\":1153:1162  msg.value */\n      callvalue\n        /* \"Wallet/Wallet.sol\":1132:1163  Purchase(msg.sender, msg.value) */\n      mload(0x40)\n      tag_52\n      swap3\n      swap2\n      swap1\n      tag_53\n      jump\t// in\n    tag_52:\n      mload(0x40)\n      dup1\n      swap2\n      sub\n      swap1\n      log1\n        /* \"Wallet/Wallet.sol\":986:1171  function buyToken() public payable {\r... */\n      jump\t// out\n        /* \"Wallet/Wallet.sol\":508:659  function addCoin(uint256 _amount) external returns (uint256, uint256) {\r... */\n    tag_35:\n        /* \"Wallet/Wallet.sol\":560:567  uint256 */\n      0x00\n        /* \"Wallet/Wallet.sol\":569:576  uint256 */\n      dup1\n        /* \"Wallet/Wallet.sol\":604:611  _amount */\n      dup3\n        /* \"Wallet/Wallet.sol\":589:600  savedAmount */\n      0x00\n      dup1\n        /* \"Wallet/Wallet.sol\":589:611  savedAmount += _amount */\n      dup3\n      dup3\n      sload\n      tag_55\n      swap2\n      swap1\n      tag_49\n      jump\t// in\n    tag_55:\n      swap3\n      pop\n      pop\n      dup2\n      swap1\n      sstore\n      pop\n        /* \"Wallet/Wallet.sol\":630:637  _amount */\n      dup3\n        /* \"Wallet/Wallet.sol\":639:650  savedAmount */\n      sload(0x00)\n        /* \"Wallet/Wallet.sol\":622:651  return (_amount, savedAmount) */\n      swap2\n      pop\n      swap2\n      pop\n        /* \"Wallet/Wallet.sol\":508:659  function addCoin(uint256 _amount) external returns (uint256, uint256) {\r... */\n      swap2\n      pop\n      swap2\n      jump\t// out\n        /* \"Wallet/Wallet.sol\":209:229  address public token */\n    tag_40:\n      0x02\n      0x00\n      swap1\n      sload\n      swap1\n      0x0100\n      exp\n      swap1\n      div\n      0xffffffffffffffffffffffffffffffffffffffff\n      and\n      dup2\n      jump\t// out\n        /* \"#utility.yul\":7:146   */\n    tag_57:\n        /* \"#utility.yul\":53:58   */\n      0x00\n        /* \"#utility.yul\":91:97   */\n      dup2\n        /* \"#utility.yul\":78:98   */\n      calldataload\n        /* \"#utility.yul\":69:98   */\n      swap1\n      pop\n        /* \"#utility.yul\":107:140   */\n      tag_59\n        /* \"#utility.yul\":134:139   */\n      dup2\n        /* \"#utility.yul\":107:140   */\n      tag_60\n      jump\t// in\n    tag_59:\n        /* \"#utility.yul\":7:146   */\n      swap3\n      swap2\n      pop\n      pop\n      jump\t// out\n        /* \"#utility.yul\":152:291   */\n    tag_61:\n        /* \"#utility.yul\":198:203   */\n      0x00\n        /* \"#utility.yul\":236:242   */\n      dup2\n        /* \"#utility.yul\":223:243   */\n      calldataload\n        /* \"#utility.yul\":214:243   */\n      swap1\n      pop\n        /* \"#utility.yul\":252:285   */\n      tag_63\n        /* \"#utility.yul\":279:284   */\n      dup2\n        /* \"#utility.yul\":252:285   */\n      tag_64\n      jump\t// in\n    tag_63:\n        /* \"#utility.yul\":152:291   */\n      swap3\n      swap2\n      pop\n      pop\n      jump\t// out\n        /* \"#utility.yul\":297:626   */\n    tag_26:\n        /* \"#utility.yul\":356:362   */\n      0x00\n        /* \"#utility.yul\":405:407   */\n      0x20\n        /* \"#utility.yul\":393:402   */\n      dup3\n        /* \"#utility.yul\":384:391   */\n      dup5\n        /* \"#utility.yul\":380:403   */\n      sub\n        /* \"#utility.yul\":376:408   */\n      slt\n        /* \"#utility.yul\":373:492   */\n      iszero\n      tag_66\n      jumpi\n        /* \"#utility.yul\":411:490   */\n      tag_67\n      tag_68\n      jump\t// in\n    tag_67:\n        /* \"#utility.yul\":373:492   */\n    tag_66:\n        /* \"#utility.yul\":531:532   */\n      0x00\n        /* \"#utility.yul\":556:609   */\n      tag_69\n        /* \"#utility.yul\":601:608   */\n      dup5\n        /* \"#utility.yul\":592:598   */\n      dup3\n        /* \"#utility.yul\":581:590   */\n      dup6\n        /* \"#utility.yul\":577:599   */\n      add\n        /* \"#utility.yul\":556:609   */\n      tag_57\n      jump\t// in\n    tag_69:\n        /* \"#utility.yul\":546:609   */\n      swap2\n      pop\n        /* \"#utility.yul\":502:619   */\n      pop\n        /* \"#utility.yul\":297:626   */\n      swap3\n      swap2\n      pop\n      pop\n      jump\t// out\n        /* \"#utility.yul\":632:961   */\n    tag_34:\n        /* \"#utility.yul\":691:697   */\n      0x00\n        /* \"#utility.yul\":740:742   */\n      0x20\n        /* \"#utility.yul\":728:737   */\n      dup3\n        /* \"#utility.yul\":719:726   */\n      dup5\n        /* \"#utility.yul\":715:738   */\n      sub\n        /* \"#utility.yul\":711:743   */\n      slt\n        /* \"#utility.yul\":708:827   */\n      iszero\n      tag_71\n      jumpi\n        /* \"#utility.yul\":746:825   */\n      tag_72\n      tag_68\n      jump\t// in\n    tag_72:\n        /* \"#utility.yul\":708:827   */\n    tag_71:\n        /* \"#utility.yul\":866:867   */\n      0x00\n        /* \"#utility.yul\":891:944   */\n      tag_73\n        /* \"#utility.yul\":936:943   */\n      dup5\n        /* \"#utility.yul\":927:933   */\n      dup3\n        /* \"#utility.yul\":916:925   */\n      dup6\n        /* \"#utility.yul\":912:934   */\n      add\n        /* \"#utility.yul\":891:944   */\n      tag_61\n      jump\t// in\n    tag_73:\n        /* \"#utility.yul\":881:944   */\n      swap2\n      pop\n        /* \"#utility.yul\":837:954   */\n      pop\n        /* \"#utility.yul\":632:961   */\n      swap3\n      swap2\n      pop\n      pop\n      jump\t// out\n        /* \"#utility.yul\":967:1109   */\n    tag_74:\n        /* \"#utility.yul\":1070:1102   */\n      tag_76\n        /* \"#utility.yul\":1096:1101   */\n      dup2\n        /* \"#utility.yul\":1070:1102   */\n      tag_77\n      jump\t// in\n    tag_76:\n        /* \"#utility.yul\":1065:1068   */\n      dup3\n        /* \"#utility.yul\":1058:1103   */\n      mstore\n        /* \"#utility.yul\":967:1109   */\n      pop\n      pop\n      jump\t// out\n        /* \"#utility.yul\":1115:1233   */\n    tag_78:\n        /* \"#utility.yul\":1202:1226   */\n      tag_80\n        /* \"#utility.yul\":1220:1225   */\n      dup2\n        /* \"#utility.yul\":1202:1226   */\n      tag_81\n      jump\t// in\n    tag_80:\n        /* \"#utility.yul\":1197:1200   */\n      dup3\n        /* \"#utility.yul\":1190:1227   */\n      mstore\n        /* \"#utility.yul\":1115:1233   */\n      pop\n      pop\n      jump\t// out\n        /* \"#utility.yul\":1239:1357   */\n    tag_82:\n        /* \"#utility.yul\":1326:1350   */\n      tag_84\n        /* \"#utility.yul\":1344:1349   */\n      dup2\n        /* \"#utility.yul\":1326:1350   */\n      tag_85\n      jump\t// in\n    tag_84:\n        /* \"#utility.yul\":1321:1324   */\n      dup3\n        /* \"#utility.yul\":1314:1351   */\n      mstore\n        /* \"#utility.yul\":1239:1357   */\n      pop\n      pop\n      jump\t// out\n        /* \"#utility.yul\":1363:1585   */\n    tag_42:\n        /* \"#utility.yul\":1456:1460   */\n      0x00\n        /* \"#utility.yul\":1494:1496   */\n      0x20\n        /* \"#utility.yul\":1483:1492   */\n      dup3\n        /* \"#utility.yul\":1479:1497   */\n      add\n        /* \"#utility.yul\":1471:1497   */\n      swap1\n      pop\n        /* \"#utility.yul\":1507:1578   */\n      tag_87\n        /* \"#utility.yul\":1575:1576   */\n      0x00\n        /* \"#utility.yul\":1564:1573   */\n      dup4\n        /* \"#utility.yul\":1560:1577   */\n      add\n        /* \"#utility.yul\":1551:1557   */\n      dup5\n        /* \"#utility.yul\":1507:1578   */\n      tag_78\n      jump\t// in\n    tag_87:\n        /* \"#utility.yul\":1363:1585   */\n      swap3\n      swap2\n      pop\n      pop\n      jump\t// out\n        /* \"#utility.yul\":1591:1845   */\n    tag_22:\n        /* \"#utility.yul\":1700:1704   */\n      0x00\n        /* \"#utility.yul\":1738:1740   */\n      0x20\n        /* \"#utility.yul\":1727:1736   */\n      dup3\n        /* \"#utility.yul\":1723:1741   */\n      add\n        /* \"#utility.yul\":1715:1741   */\n      swap1\n      pop\n        /* \"#utility.yul\":1751:1838   */\n      tag_89\n        /* \"#utility.yul\":1835:1836   */\n      0x00\n        /* \"#utility.yul\":1824:1833   */\n      dup4\n        /* \"#utility.yul\":1820:1837   */\n      add\n        /* \"#utility.yul\":1811:1817   */\n      dup5\n        /* \"#utility.yul\":1751:1838   */\n      tag_74\n      jump\t// in\n    tag_89:\n        /* \"#utility.yul\":1591:1845   */\n      swap3\n      swap2\n      pop\n      pop\n      jump\t// out\n        /* \"#utility.yul\":1851:2183   */\n    tag_53:\n        /* \"#utility.yul\":1972:1976   */\n      0x00\n        /* \"#utility.yul\":2010:2012   */\n      0x40\n        /* \"#utility.yul\":1999:2008   */\n      dup3\n        /* \"#utility.yul\":1995:2013   */\n      add\n        /* \"#utility.yul\":1987:2013   */\n      swap1\n      pop\n        /* \"#utility.yul\":2023:2094   */\n      tag_91\n        /* \"#utility.yul\":2091:2092   */\n      0x00\n        /* \"#utility.yul\":2080:2089   */\n      dup4\n        /* \"#utility.yul\":2076:2093   */\n      add\n        /* \"#utility.yul\":2067:2073   */\n      dup6\n        /* \"#utility.yul\":2023:2094   */\n      tag_78\n      jump\t// in\n    tag_91:\n        /* \"#utility.yul\":2104:2176   */\n      tag_92\n        /* \"#utility.yul\":2172:2174   */\n      0x20\n        /* \"#utility.yul\":2161:2170   */\n      dup4\n        /* \"#utility.yul\":2157:2175   */\n      add\n        /* \"#utility.yul\":2148:2154   */\n      dup5\n        /* \"#utility.yul\":2104:2176   */\n      tag_82\n      jump\t// in\n    tag_92:\n        /* \"#utility.yul\":1851:2183   */\n      swap4\n      swap3\n      pop\n      pop\n      pop\n      jump\t// out\n        /* \"#utility.yul\":2189:2411   */\n    tag_17:\n        /* \"#utility.yul\":2282:2286   */\n      0x00\n        /* \"#utility.yul\":2320:2322   */\n      0x20\n        /* \"#utility.yul\":2309:2318   */\n      dup3\n        /* \"#utility.yul\":2305:2323   */\n      add\n        /* \"#utility.yul\":2297:2323   */\n      swap1\n      pop\n        /* \"#utility.yul\":2333:2404   */\n      tag_94\n        /* \"#utility.yul\":2401:2402   */\n      0x00\n        /* \"#utility.yul\":2390:2399   */\n      dup4\n        /* \"#utility.yul\":2386:2403   */\n      add\n        /* \"#utility.yul\":2377:2383   */\n      dup5\n        /* \"#utility.yul\":2333:2404   */\n      tag_82\n      jump\t// in\n    tag_94:\n        /* \"#utility.yul\":2189:2411   */\n      swap3\n      swap2\n      pop\n      pop\n      jump\t// out\n        /* \"#utility.yul\":2417:2749   */\n    tag_37:\n        /* \"#utility.yul\":2538:2542   */\n      0x00\n        /* \"#utility.yul\":2576:2578   */\n      0x40\n        /* \"#utility.yul\":2565:2574   */\n      dup3\n        /* \"#utility.yul\":2561:2579   */\n      add\n        /* \"#utility.yul\":2553:2579   */\n      swap1\n      pop\n        /* \"#utility.yul\":2589:2660   */\n      tag_96\n        /* \"#utility.yul\":2657:2658   */\n      0x00\n        /* \"#utility.yul\":2646:2655   */\n      dup4\n        /* \"#utility.yul\":2642:2659   */\n      add\n        /* \"#utility.yul\":2633:2639   */\n      dup6\n        /* \"#utility.yul\":2589:2660   */\n      tag_82\n      jump\t// in\n    tag_96:\n        /* \"#utility.yul\":2670:2742   */\n      tag_97\n        /* \"#utility.yul\":2738:2740   */\n      0x20\n        /* \"#utility.yul\":2727:2736   */\n      dup4\n        /* \"#utility.yul\":2723:2741   */\n      add\n        /* \"#utility.yul\":2714:2720   */\n      dup5\n        /* \"#utility.yul\":2670:2742   */\n      tag_82\n      jump\t// in\n    tag_97:\n        /* \"#utility.yul\":2417:2749   */\n      swap4\n      swap3\n      pop\n      pop\n      pop\n      jump\t// out\n        /* \"#utility.yul\":2836:3141   */\n    tag_49:\n        /* \"#utility.yul\":2876:2879   */\n      0x00\n        /* \"#utility.yul\":2895:2915   */\n      tag_101\n        /* \"#utility.yul\":2913:2914   */\n      dup3\n        /* \"#utility.yul\":2895:2915   */\n      tag_85\n      jump\t// in\n    tag_101:\n        /* \"#utility.yul\":2890:2915   */\n      swap2\n      pop\n        /* \"#utility.yul\":2929:2949   */\n      tag_102\n        /* \"#utility.yul\":2947:2948   */\n      dup4\n        /* \"#utility.yul\":2929:2949   */\n      tag_85\n      jump\t// in\n    tag_102:\n        /* \"#utility.yul\":2924:2949   */\n      swap3\n      pop\n        /* \"#utility.yul\":3083:3084   */\n      dup3\n        /* \"#utility.yul\":3015:3081   */\n      0xffffffffffffffffffffffffffffffffffffffffffffffffffffffffffffffff\n        /* \"#utility.yul\":3011:3085   */\n      sub\n        /* \"#utility.yul\":3008:3009   */\n      dup3\n        /* \"#utility.yul\":3005:3086   */\n      gt\n        /* \"#utility.yul\":3002:3109   */\n      iszero\n      tag_103\n      jumpi\n        /* \"#utility.yul\":3089:3107   */\n      tag_104\n      tag_105\n      jump\t// in\n    tag_104:\n        /* \"#utility.yul\":3002:3109   */\n    tag_103:\n        /* \"#utility.yul\":3133:3134   */\n      dup3\n        /* \"#utility.yul\":3130:3131   */\n      dup3\n        /* \"#utility.yul\":3126:3135   */\n      add\n        /* \"#utility.yul\":3119:3135   */\n      swap1\n      pop\n        /* \"#utility.yul\":2836:3141   */\n      swap3\n      swap2\n      pop\n      pop\n      jump\t// out\n        /* \"#utility.yul\":3147:3243   */\n    tag_81:\n        /* \"#utility.yul\":3184:3191   */\n      0x00\n        /* \"#utility.yul\":3213:3237   */\n      tag_107\n        /* \"#utility.yul\":3231:3236   */\n      dup3\n        /* \"#utility.yul\":3213:3237   */\n      tag_108\n      jump\t// in\n    tag_107:\n        /* \"#utility.yul\":3202:3237   */\n      swap1\n      pop\n        /* \"#utility.yul\":3147:3243   */\n      swap2\n      swap1\n      pop\n      jump\t// out\n        /* \"#utility.yul\":3249:3353   */\n    tag_77:\n        /* \"#utility.yul\":3294:3301   */\n      0x00\n        /* \"#utility.yul\":3323:3347   */\n      tag_110\n        /* \"#utility.yul\":3341:3346   */\n      dup3\n        /* \"#utility.yul\":3323:3347   */\n      tag_108\n      jump\t// in\n    tag_110:\n        /* \"#utility.yul\":3312:3347   */\n      swap1\n      pop\n        /* \"#utility.yul\":3249:3353   */\n      swap2\n      swap1\n      pop\n      jump\t// out\n        /* \"#utility.yul\":3359:3485   */\n    tag_108:\n        /* \"#utility.yul\":3396:3403   */\n      0x00\n        /* \"#utility.yul\":3436:3478   */\n      0xffffffffffffffffffffffffffffffffffffffff\n        /* \"#utility.yul\":3429:3434   */\n      dup3\n        /* \"#utility.yul\":3425:3479   */\n      and\n        /* \"#utility.yul\":3414:3479   */\n      swap1\n      pop\n        /* \"#utility.yul\":3359:3485   */\n      swap2\n      swap1\n      pop\n      jump\t// out\n        /* \"#utility.yul\":3491:3568   */\n    tag_85:\n        /* \"#utility.yul\":3528:3535   */\n      0x00\n        /* \"#utility.yul\":3557:3562   */\n      dup2\n        /* \"#utility.yul\":3546:3562   */\n      swap1\n      pop\n        /* \"#utility.yul\":3491:3568   */\n      swap2\n      swap1\n      pop\n      jump\t// out\n        /* \"#utility.yul\":3574:3754   */\n    tag_105:\n        /* \"#utility.yul\":3622:3699   */\n      0x4e487b7100000000000000000000000000000000000000000000000000000000\n        /* \"#utility.yul\":3619:3620   */\n      0x00\n        /* \"#utility.yul\":3612:3700   */\n      mstore\n        /* \"#utility.yul\":3719:3723   */\n      0x11\n        /* \"#utility.yul\":3716:3717   */\n      0x04\n        /* \"#utility.yul\":3709:3724   */\n      mstore\n        /* \"#utility.yul\":3743:3747   */\n      0x24\n        /* \"#utility.yul\":3740:3741   */\n      0x00\n        /* \"#utility.yul\":3733:3748   */\n      revert\n        /* \"#utility.yul\":3883:4000   */\n    tag_68:\n        /* \"#utility.yul\":3992:3993   */\n      0x00\n        /* \"#utility.yul\":3989:3990   */\n      dup1\n        /* \"#utility.yul\":3982:3994   */\n      revert\n        /* \"#utility.yul\":4006:4128   */\n    tag_60:\n        /* \"#utility.yul\":4079:4103   */\n      tag_118\n        /* \"#utility.yul\":4097:4102   */\n      dup2\n        /* \"#utility.yul\":4079:4103   */\n      tag_81\n      jump\t// in\n    tag_118:\n        /* \"#utility.yul\":4072:4077   */\n      dup2\n        /* \"#utility.yul\":4069:4104   */\n      eq\n        /* \"#utility.yul\":4059:4122   */\n      tag_119\n      jumpi\n        /* \"#utility.yul\":4118:4119   */\n      0x00\n        /* \"#utility.yul\":4115:4116   */\n      dup1\n        /* \"#utility.yul\":4108:4120   */\n      revert\n        /* \"#utility.yul\":4059:4122   */\n    tag_119:\n        /* \"#utility.yul\":4006:4128   */\n      pop\n      jump\t// out\n        /* \"#utility.yul\":4134:4256   */\n    tag_64:\n        /* \"#utility.yul\":4207:4231   */\n      tag_121\n        /* \"#utility.yul\":4225:4230   */\n      dup2\n        /* \"#utility.yul\":4207:4231   */\n      tag_85\n      jump\t// in\n    tag_121:\n        /* \"#utility.yul\":4200:4205   */\n      dup2\n        /* \"#utility.yul\":4197:4232   */\n      eq\n        /* \"#utility.yul\":4187:4250   */\n      tag_122\n      jumpi\n        /* \"#utility.yul\":4246:4247   */\n      0x00\n        /* \"#utility.yul\":4243:4244   */\n      dup1\n        /* \"#utility.yul\":4236:4248   */\n      revert\n        /* \"#utility.yul\":4187:4250   */\n    tag_122:\n        /* \"#utility.yul\":4134:4256   */\n      pop\n      jump\t// out\n\n    auxdata: 0xa2646970667358221220676a018c7f436f976ce7a63765d3f417a26f5652579fc88f33984e2fdefe0a3364736f6c63430008070033\n}\n",
				"bytecode": {
					"linkReferences": {},
					"object": "60806040526000805534801561001457600080fd5b506040516107c33803806107c3833981810160405281019061003691906100e9565b81600160006101000a81548173ffffffffffffffffffffffffffffffffffffffff021916908373ffffffffffffffffffffffffffffffffffffffff16021790555080600260006101000a81548173ffffffffffffffffffffffffffffffffffffffff021916908373ffffffffffffffffffffffffffffffffffffffff16021790555050506101a0565b6000815190506100ce81610172565b92915050565b6000815190506100e381610189565b92915050565b60008060408385031215610100576100ff61016d565b5b600061010e858286016100d4565b925050602061011f858286016100bf565b9150509250929050565b60006101348261014d565b9050919050565b60006101468261014d565b9050919050565b600073ffffffffffffffffffffffffffffffffffffffff82169050919050565b600080fd5b61017b81610129565b811461018657600080fd5b50565b6101928161013b565b811461019d57600080fd5b50565b610614806101af6000396000f3fe6080604052600436106100705760003560e01c80639bd3178a1161004e5780639bd3178a146100e2578063a48217191461011f578063a56793ae14610129578063fc0c546a1461016757610070565b80631895e85814610075578063623e9ba61461008c5780639335dcb7146100b7575b600080fd5b34801561008157600080fd5b5061008a610192565b005b34801561009857600080fd5b506100a16101f5565b6040516100ae9190610494565b60405180910390f35b3480156100c357600080fd5b506100cc6101fe565b6040516100d99190610450565b60405180910390f35b3480156100ee57600080fd5b50610109600480360381019061010491906103ae565b610224565b6040516101169190610494565b60405180910390f35b61012761023c565b005b34801561013557600080fd5b50610150600480360381019061014b91906103db565b610336565b60405161015e9291906104af565b60405180910390f35b34801561017357600080fd5b5061017c61035e565b6040516101899190610435565b60405180910390f35b600160009054906101000a900473ffffffffffffffffffffffffffffffffffffffff1673ffffffffffffffffffffffffffffffffffffffff163373ffffffffffffffffffffffffffffffffffffffff16146101ec57600080fd5b60008081905550565b60008054905090565b600160009054906101000a900473ffffffffffffffffffffffffffffffffffffffff1681565b60036020528060005260406000206000915090505481565b34600360003373ffffffffffffffffffffffffffffffffffffffff1673ffffffffffffffffffffffffffffffffffffffff168152602001908152602001600020600082825461028b91906104d8565b92505081905550600160009054906101000a900473ffffffffffffffffffffffffffffffffffffffff1673ffffffffffffffffffffffffffffffffffffffff166108fc349081150290604051600060405180830381858888f193505050501580156102fa573d6000803e3d6000fd5b507f2499a5330ab0979cc612135e7883ebc3cd5c9f7a8508f042540c34723348f632333460405161032c92919061046b565b60405180910390a1565b6000808260008082825461034a91906104d8565b925050819055508260005491509150915091565b600260009054906101000a900473ffffffffffffffffffffffffffffffffffffffff1681565b600081359050610393816105b0565b92915050565b6000813590506103a8816105c7565b92915050565b6000602082840312156103c4576103c36105ab565b5b60006103d284828501610384565b91505092915050565b6000602082840312156103f1576103f06105ab565b5b60006103ff84828501610399565b91505092915050565b61041181610540565b82525050565b6104208161052e565b82525050565b61042f81610572565b82525050565b600060208201905061044a6000830184610417565b92915050565b60006020820190506104656000830184610408565b92915050565b60006040820190506104806000830185610417565b61048d6020830184610426565b9392505050565b60006020820190506104a96000830184610426565b92915050565b60006040820190506104c46000830185610426565b6104d16020830184610426565b9392505050565b60006104e382610572565b91506104ee83610572565b9250827fffffffffffffffffffffffffffffffffffffffffffffffffffffffffffffffff038211156105235761052261057c565b5b828201905092915050565b600061053982610552565b9050919050565b600061054b82610552565b9050919050565b600073ffffffffffffffffffffffffffffffffffffffff82169050919050565b6000819050919050565b7f4e487b7100000000000000000000000000000000000000000000000000000000600052601160045260246000fd5b600080fd5b6105b98161052e565b81146105c457600080fd5b50565b6105d081610572565b81146105db57600080fd5b5056fea2646970667358221220676a018c7f436f976ce7a63765d3f417a26f5652579fc88f33984e2fdefe0a3364736f6c63430008070033",
					"opcodes": "PUSH1 0x80 PUSH1 0x40 MSTORE PUSH1 0x0 DUP1 SSTORE CALLVALUE DUP1 ISZERO PUSH2 0x14 JUMPI PUSH1 0x0 DUP1 REVERT JUMPDEST POP PUSH1 0x40 MLOAD PUSH2 0x7C3 CODESIZE SUB DUP1 PUSH2 0x7C3 DUP4 CODECOPY DUP2 DUP2 ADD PUSH1 0x40 MSTORE DUP2 ADD SWAP1 PUSH2 0x36 SWAP2 SWAP1 PUSH2 0xE9 JUMP JUMPDEST DUP2 PUSH1 0x1 PUSH1 0x0 PUSH2 0x100 EXP DUP2 SLOAD DUP2 PUSH20 0xFFFFFFFFFFFFFFFFFFFFFFFFFFFFFFFFFFFFFFFF MUL NOT AND SWAP1 DUP4 PUSH20 0xFFFFFFFFFFFFFFFFFFFFFFFFFFFFFFFFFFFFFFFF AND MUL OR SWAP1 SSTORE POP DUP1 PUSH1 0x2 PUSH1 0x0 PUSH2 0x100 EXP DUP2 SLOAD DUP2 PUSH20 0xFFFFFFFFFFFFFFFFFFFFFFFFFFFFFFFFFFFFFFFF MUL NOT AND SWAP1 DUP4 PUSH20 0xFFFFFFFFFFFFFFFFFFFFFFFFFFFFFFFFFFFFFFFF AND MUL OR SWAP1 SSTORE POP POP POP PUSH2 0x1A0 JUMP JUMPDEST PUSH1 0x0 DUP2 MLOAD SWAP1 POP PUSH2 0xCE DUP2 PUSH2 0x172 JUMP JUMPDEST SWAP3 SWAP2 POP POP JUMP JUMPDEST PUSH1 0x0 DUP2 MLOAD SWAP1 POP PUSH2 0xE3 DUP2 PUSH2 0x189 JUMP JUMPDEST SWAP3 SWAP2 POP POP JUMP JUMPDEST PUSH1 0x0 DUP1 PUSH1 0x40 DUP4 DUP6 SUB SLT ISZERO PUSH2 0x100 JUMPI PUSH2 0xFF PUSH2 0x16D JUMP JUMPDEST JUMPDEST PUSH1 0x0 PUSH2 0x10E DUP6 DUP3 DUP7 ADD PUSH2 0xD4 JUMP JUMPDEST SWAP3 POP POP PUSH1 0x20 PUSH2 0x11F DUP6 DUP3 DUP7 ADD PUSH2 0xBF JUMP JUMPDEST SWAP2 POP POP SWAP3 POP SWAP3 SWAP1 POP JUMP JUMPDEST PUSH1 0x0 PUSH2 0x134 DUP3 PUSH2 0x14D JUMP JUMPDEST SWAP1 POP SWAP2 SWAP1 POP JUMP JUMPDEST PUSH1 0x0 PUSH2 0x146 DUP3 PUSH2 0x14D JUMP JUMPDEST SWAP1 POP SWAP2 SWAP1 POP JUMP JUMPDEST PUSH1 0x0 PUSH20 0xFFFFFFFFFFFFFFFFFFFFFFFFFFFFFFFFFFFFFFFF DUP3 AND SWAP1 POP SWAP2 SWAP1 POP JUMP JUMPDEST PUSH1 0x0 DUP1 REVERT JUMPDEST PUSH2 0x17B DUP2 PUSH2 0x129 JUMP JUMPDEST DUP2 EQ PUSH2 0x186 JUMPI PUSH1 0x0 DUP1 REVERT JUMPDEST POP JUMP JUMPDEST PUSH2 0x192 DUP2 PUSH2 0x13B JUMP JUMPDEST DUP2 EQ PUSH2 0x19D JUMPI PUSH1 0x0 DUP1 REVERT JUMPDEST POP JUMP JUMPDEST PUSH2 0x614 DUP1 PUSH2 0x1AF PUSH1 0x0 CODECOPY PUSH1 0x0 RETURN INVALID PUSH1 0x80 PUSH1 0x40 MSTORE PUSH1 0x4 CALLDATASIZE LT PUSH2 0x70 JUMPI PUSH1 0x0 CALLDATALOAD PUSH1 0xE0 SHR DUP1 PUSH4 0x9BD3178A GT PUSH2 0x4E JUMPI DUP1 PUSH4 0x9BD3178A EQ PUSH2 0xE2 JUMPI DUP1 PUSH4 0xA4821719 EQ PUSH2 0x11F JUMPI DUP1 PUSH4 0xA56793AE EQ PUSH2 0x129 JUMPI DUP1 PUSH4 0xFC0C546A EQ PUSH2 0x167 JUMPI PUSH2 0x70 JUMP JUMPDEST DUP1 PUSH4 0x1895E858 EQ PUSH2 0x75 JUMPI DUP1 PUSH4 0x623E9BA6 EQ PUSH2 0x8C JUMPI DUP1 PUSH4 0x9335DCB7 EQ PUSH2 0xB7 JUMPI JUMPDEST PUSH1 0x0 DUP1 REVERT JUMPDEST CALLVALUE DUP1 ISZERO PUSH2 0x81 JUMPI PUSH1 0x0 DUP1 REVERT JUMPDEST POP PUSH2 0x8A PUSH2 0x192 JUMP JUMPDEST STOP JUMPDEST CALLVALUE DUP1 ISZERO PUSH2 0x98 JUMPI PUSH1 0x0 DUP1 REVERT JUMPDEST POP PUSH2 0xA1 PUSH2 0x1F5 JUMP JUMPDEST PUSH1 0x40 MLOAD PUSH2 0xAE SWAP2 SWAP1 PUSH2 0x494 JUMP JUMPDEST PUSH1 0x40 MLOAD DUP1 SWAP2 SUB SWAP1 RETURN JUMPDEST CALLVALUE DUP1 ISZERO PUSH2 0xC3 JUMPI PUSH1 0x0 DUP1 REVERT JUMPDEST POP PUSH2 0xCC PUSH2 0x1FE JUMP JUMPDEST PUSH1 0x40 MLOAD PUSH2 0xD9 SWAP2 SWAP1 PUSH2 0x450 JUMP JUMPDEST PUSH1 0x40 MLOAD DUP1 SWAP2 SUB SWAP1 RETURN JUMPDEST CALLVALUE DUP1 ISZERO PUSH2 0xEE JUMPI PUSH1 0x0 DUP1 REVERT JUMPDEST POP PUSH2 0x109 PUSH1 0x4 DUP1 CALLDATASIZE SUB DUP2 ADD SWAP1 PUSH2 0x104 SWAP2 SWAP1 PUSH2 0x3AE JUMP JUMPDEST PUSH2 0x224 JUMP JUMPDEST PUSH1 0x40 MLOAD PUSH2 0x116 SWAP2 SWAP1 PUSH2 0x494 JUMP JUMPDEST PUSH1 0x40 MLOAD DUP1 SWAP2 SUB SWAP1 RETURN JUMPDEST PUSH2 0x127 PUSH2 0x23C JUMP JUMPDEST STOP JUMPDEST CALLVALUE DUP1 ISZERO PUSH2 0x135 JUMPI PUSH1 0x0 DUP1 REVERT JUMPDEST POP PUSH2 0x150 PUSH1 0x4 DUP1 CALLDATASIZE SUB DUP2 ADD SWAP1 PUSH2 0x14B SWAP2 SWAP1 PUSH2 0x3DB JUMP JUMPDEST PUSH2 0x336 JUMP JUMPDEST PUSH1 0x40 MLOAD PUSH2 0x15E SWAP3 SWAP2 SWAP1 PUSH2 0x4AF JUMP JUMPDEST PUSH1 0x40 MLOAD DUP1 SWAP2 SUB SWAP1 RETURN JUMPDEST CALLVALUE DUP1 ISZERO PUSH2 0x173 JUMPI PUSH1 0x0 DUP1 REVERT JUMPDEST POP PUSH2 0x17C PUSH2 0x35E JUMP JUMPDEST PUSH1 0x40 MLOAD PUSH2 0x189 SWAP2 SWAP1 PUSH2 0x435 JUMP JUMPDEST PUSH1 0x40 MLOAD DUP1 SWAP2 SUB SWAP1 RETURN JUMPDEST PUSH1 0x1 PUSH1 0x0 SWAP1 SLOAD SWAP1 PUSH2 0x100 EXP SWAP1 DIV PUSH20 0xFFFFFFFFFFFFFFFFFFFFFFFFFFFFFFFFFFFFFFFF AND PUSH20 0xFFFFFFFFFFFFFFFFFFFFFFFFFFFFFFFFFFFFFFFF AND CALLER PUSH20 0xFFFFFFFFFFFFFFFFFFFFFFFFFFFFFFFFFFFFFFFF AND EQ PUSH2 0x1EC JUMPI PUSH1 0x0 DUP1 REVERT JUMPDEST PUSH1 0x0 DUP1 DUP2 SWAP1 SSTORE POP JUMP JUMPDEST PUSH1 0x0 DUP1 SLOAD SWAP1 POP SWAP1 JUMP JUMPDEST PUSH1 0x1 PUSH1 0x0 SWAP1 SLOAD SWAP1 PUSH2 0x100 EXP SWAP1 DIV PUSH20 0xFFFFFFFFFFFFFFFFFFFFFFFFFFFFFFFFFFFFFFFF AND DUP2 JUMP JUMPDEST PUSH1 0x3 PUSH1 0x20 MSTORE DUP1 PUSH1 0x0 MSTORE PUSH1 0x40 PUSH1 0x0 KECCAK256 PUSH1 0x0 SWAP2 POP SWAP1 POP SLOAD DUP2 JUMP JUMPDEST CALLVALUE PUSH1 0x3 PUSH1 0x0 CALLER PUSH20 0xFFFFFFFFFFFFFFFFFFFFFFFFFFFFFFFFFFFFFFFF AND PUSH20 0xFFFFFFFFFFFFFFFFFFFFFFFFFFFFFFFFFFFFFFFF AND DUP2 MSTORE PUSH1 0x20 ADD SWAP1 DUP2 MSTORE PUSH1 0x20 ADD PUSH1 0x0 KECCAK256 PUSH1 0x0 DUP3 DUP3 SLOAD PUSH2 0x28B SWAP2 SWAP1 PUSH2 0x4D8 JUMP JUMPDEST SWAP3 POP POP DUP2 SWAP1 SSTORE POP PUSH1 0x1 PUSH1 0x0 SWAP1 SLOAD SWAP1 PUSH2 0x100 EXP SWAP1 DIV PUSH20 0xFFFFFFFFFFFFFFFFFFFFFFFFFFFFFFFFFFFFFFFF AND PUSH20 0xFFFFFFFFFFFFFFFFFFFFFFFFFFFFFFFFFFFFFFFF AND PUSH2 0x8FC CALLVALUE SWAP1 DUP2 ISZERO MUL SWAP1 PUSH1 0x40 MLOAD PUSH1 0x0 PUSH1 0x40 MLOAD DUP1 DUP4 SUB DUP2 DUP6 DUP9 DUP9 CALL SWAP4 POP POP POP POP ISZERO DUP1 ISZERO PUSH2 0x2FA JUMPI RETURNDATASIZE PUSH1 0x0 DUP1 RETURNDATACOPY RETURNDATASIZE PUSH1 0x0 REVERT JUMPDEST POP PUSH32 0x2499A5330AB0979CC612135E7883EBC3CD5C9F7A8508F042540C34723348F632 CALLER CALLVALUE PUSH1 0x40 MLOAD PUSH2 0x32C SWAP3 SWAP2 SWAP1 PUSH2 0x46B JUMP JUMPDEST PUSH1 0x40 MLOAD DUP1 SWAP2 SUB SWAP1 LOG1 JUMP JUMPDEST PUSH1 0x0 DUP1 DUP3 PUSH1 0x0 DUP1 DUP3 DUP3 SLOAD PUSH2 0x34A SWAP2 SWAP1 PUSH2 0x4D8 JUMP JUMPDEST SWAP3 POP POP DUP2 SWAP1 SSTORE POP DUP3 PUSH1 0x0 SLOAD SWAP2 POP SWAP2 POP SWAP2 POP SWAP2 JUMP JUMPDEST PUSH1 0x2 PUSH1 0x0 SWAP1 SLOAD SWAP1 PUSH2 0x100 EXP SWAP1 DIV PUSH20 0xFFFFFFFFFFFFFFFFFFFFFFFFFFFFFFFFFFFFFFFF AND DUP2 JUMP JUMPDEST PUSH1 0x0 DUP2 CALLDATALOAD SWAP1 POP PUSH2 0x393 DUP2 PUSH2 0x5B0 JUMP JUMPDEST SWAP3 SWAP2 POP POP JUMP JUMPDEST PUSH1 0x0 DUP2 CALLDATALOAD SWAP1 POP PUSH2 0x3A8 DUP2 PUSH2 0x5C7 JUMP JUMPDEST SWAP3 SWAP2 POP POP JUMP JUMPDEST PUSH1 0x0 PUSH1 0x20 DUP3 DUP5 SUB SLT ISZERO PUSH2 0x3C4 JUMPI PUSH2 0x3C3 PUSH2 0x5AB JUMP JUMPDEST JUMPDEST PUSH1 0x0 PUSH2 0x3D2 DUP5 DUP3 DUP6 ADD PUSH2 0x384 JUMP JUMPDEST SWAP2 POP POP SWAP3 SWAP2 POP POP JUMP JUMPDEST PUSH1 0x0 PUSH1 0x20 DUP3 DUP5 SUB SLT ISZERO PUSH2 0x3F1 JUMPI PUSH2 0x3F0 PUSH2 0x5AB JUMP JUMPDEST JUMPDEST PUSH1 0x0 PUSH2 0x3FF DUP5 DUP3 DUP6 ADD PUSH2 0x399 JUMP JUMPDEST SWAP2 POP POP SWAP3 SWAP2 POP POP JUMP JUMPDEST PUSH2 0x411 DUP2 PUSH2 0x540 JUMP JUMPDEST DUP3 MSTORE POP POP JUMP JUMPDEST PUSH2 0x420 DUP2 PUSH2 0x52E JUMP JUMPDEST DUP3 MSTORE POP POP JUMP JUMPDEST PUSH2 0x42F DUP2 PUSH2 0x572 JUMP JUMPDEST DUP3 MSTORE POP POP JUMP JUMPDEST PUSH1 0x0 PUSH1 0x20 DUP3 ADD SWAP1 POP PUSH2 0x44A PUSH1 0x0 DUP4 ADD DUP5 PUSH2 0x417 JUMP JUMPDEST SWAP3 SWAP2 POP POP JUMP JUMPDEST PUSH1 0x0 PUSH1 0x20 DUP3 ADD SWAP1 POP PUSH2 0x465 PUSH1 0x0 DUP4 ADD DUP5 PUSH2 0x408 JUMP JUMPDEST SWAP3 SWAP2 POP POP JUMP JUMPDEST PUSH1 0x0 PUSH1 0x40 DUP3 ADD SWAP1 POP PUSH2 0x480 PUSH1 0x0 DUP4 ADD DUP6 PUSH2 0x417 JUMP JUMPDEST PUSH2 0x48D PUSH1 0x20 DUP4 ADD DUP5 PUSH2 0x426 JUMP JUMPDEST SWAP4 SWAP3 POP POP POP JUMP JUMPDEST PUSH1 0x0 PUSH1 0x20 DUP3 ADD SWAP1 POP PUSH2 0x4A9 PUSH1 0x0 DUP4 ADD DUP5 PUSH2 0x426 JUMP JUMPDEST SWAP3 SWAP2 POP POP JUMP JUMPDEST PUSH1 0x0 PUSH1 0x40 DUP3 ADD SWAP1 POP PUSH2 0x4C4 PUSH1 0x0 DUP4 ADD DUP6 PUSH2 0x426 JUMP JUMPDEST PUSH2 0x4D1 PUSH1 0x20 DUP4 ADD DUP5 PUSH2 0x426 JUMP JUMPDEST SWAP4 SWAP3 POP POP POP JUMP JUMPDEST PUSH1 0x0 PUSH2 0x4E3 DUP3 PUSH2 0x572 JUMP JUMPDEST SWAP2 POP PUSH2 0x4EE DUP4 PUSH2 0x572 JUMP JUMPDEST SWAP3 POP DUP3 PUSH32 0xFFFFFFFFFFFFFFFFFFFFFFFFFFFFFFFFFFFFFFFFFFFFFFFFFFFFFFFFFFFFFFFF SUB DUP3 GT ISZERO PUSH2 0x523 JUMPI PUSH2 0x522 PUSH2 0x57C JUMP JUMPDEST JUMPDEST DUP3 DUP3 ADD SWAP1 POP SWAP3 SWAP2 POP POP JUMP JUMPDEST PUSH1 0x0 PUSH2 0x539 DUP3 PUSH2 0x552 JUMP JUMPDEST SWAP1 POP SWAP2 SWAP1 POP JUMP JUMPDEST PUSH1 0x0 PUSH2 0x54B DUP3 PUSH2 0x552 JUMP JUMPDEST SWAP1 POP SWAP2 SWAP1 POP JUMP JUMPDEST PUSH1 0x0 PUSH20 0xFFFFFFFFFFFFFFFFFFFFFFFFFFFFFFFFFFFFFFFF DUP3 AND SWAP1 POP SWAP2 SWAP1 POP JUMP JUMPDEST PUSH1 0x0 DUP2 SWAP1 POP SWAP2 SWAP1 POP JUMP JUMPDEST PUSH32 0x4E487B7100000000000000000000000000000000000000000000000000000000 PUSH1 0x0 MSTORE PUSH1 0x11 PUSH1 0x4 MSTORE PUSH1 0x24 PUSH1 0x0 REVERT JUMPDEST PUSH1 0x0 DUP1 REVERT JUMPDEST PUSH2 0x5B9 DUP2 PUSH2 0x52E JUMP JUMPDEST DUP2 EQ PUSH2 0x5C4 JUMPI PUSH1 0x0 DUP1 REVERT JUMPDEST POP JUMP JUMPDEST PUSH2 0x5D0 DUP2 PUSH2 0x572 JUMP JUMPDEST DUP2 EQ PUSH2 0x5DB JUMPI PUSH1 0x0 DUP1 REVERT JUMPDEST POP JUMP INVALID LOG2 PUSH5 0x6970667358 0x22 SLT KECCAK256 PUSH8 0x6A018C7F436F976C 0xE7 0xA6 CALLDATACOPY PUSH6 0xD3F417A26F56 MSTORE JUMPI SWAP16 0xC8 DUP16 CALLER SWAP9 0x4E 0x2F 0xDE INVALID EXP CALLER PUSH5 0x736F6C6343 STOP ADDMOD SMOD STOP CALLER "
				},
				"gasEstimates": {
					"creation": {
						"codeDepositCost": "311200",
						"executionCost": "infinite",
						"totalCost": "infinite"
					},
					"external": {
						"EPTokenBalances(address)": "2814",
						"addCoin(uint256)": "infinite",
						"buyToken()": "infinite",
						"getCoinAmount()": "2460",
						"ownerWallet()": "2559",
						"resetWallet()": "7329",
						"token()": "2580"
					}
				},
				"methodIdentifiers": {
					"EPTokenBalances(address)": "9bd3178a",
					"addCoin(uint256)": "a56793ae",
					"buyToken()": "a4821719",
					"getCoinAmount()": "623e9ba6",
					"ownerWallet()": "9335dcb7",
					"resetWallet()": "1895e858",
					"token()": "fc0c546a"
				}
			},
			"storageLayout": {
				"storage": [
					{
						"astId": 111,
						"contract": "Wallet/Wallet.sol:Wallet",
						"label": "savedAmount",
						"offset": 0,
						"slot": "0",
						"type": "t_uint256"
					},
					{
						"astId": 113,
						"contract": "Wallet/Wallet.sol:Wallet",
						"label": "ownerWallet",
						"offset": 0,
						"slot": "1",
						"type": "t_address_payable"
					},
					{
						"astId": 115,
						"contract": "Wallet/Wallet.sol:Wallet",
						"label": "token",
						"offset": 0,
						"slot": "2",
						"type": "t_address"
					},
					{
						"astId": 119,
						"contract": "Wallet/Wallet.sol:Wallet",
						"label": "EPTokenBalances",
						"offset": 0,
						"slot": "3",
						"type": "t_mapping(t_address,t_uint256)"
					}
				],
				"types": {
					"t_address": {
						"encoding": "inplace",
						"label": "address",
						"numberOfBytes": "20"
					},
					"t_address_payable": {
						"encoding": "inplace",
						"label": "address payable",
						"numberOfBytes": "20"
					},
					"t_mapping(t_address,t_uint256)": {
						"encoding": "mapping",
						"key": "t_address",
						"label": "mapping(address => uint256)",
						"numberOfBytes": "32",
						"value": "t_uint256"
					},
					"t_uint256": {
						"encoding": "inplace",
						"label": "uint256",
						"numberOfBytes": "32"
					}
				}
			},
			"userdoc": {
				"kind": "user",
				"methods": {},
				"version": 1
			}
		}
	}
}